:020000040800F2
:100000004819002045010008B90F00088D0F0008AD
:10001000B50F00085F0E0008571900080000000027
:10002000000000000000000000000000591300085C
:10003000630E0008000000001511000809140008F4
:100040005F0100085F0100085F0100085F01000810
:100050005F0100085F0100085F0100085F01000800
:100060005F0100085F0100085F0100085F010008F0
:100070005F0100085F0100085F0100085F010008E0
:100080005F0100085F0100085F0100085F010008D0
:100090005F0100085F0100085F0100085F010008C0
:1000A0005F0100085F0100085F0100085F010008B0
:1000B0005F0100085F0100085F0100085F010008A0
:1000C0005F0100085F0100085F0100085F01000890
:1000D0005F010008C9160008511700085F010008F9
:1000E0005F0100085F0100085F0100085F01000870
:1000F0005F0100085F0100085F0100085F01000860
:100100005F0100085F0100085F0100085F0100084F
:100110005F0100085F0100085F0100085F0100083F
:100120005F0100085F0100085F0100085F0100082F
:10013000DFF80CD000F05CFC004800474D390008A7
:10014000481900200648804706480047FEE7FEE7BA
:10015000FEE7FEE7FEE7FEE7FEE7FEE7FEE7FEE777
:100160000D140008310100082DE9F05F054600205C
:1001700092469B4688460646814640241BE0284618
:1001800041464746224600F0C6FA53465A46C01A30
:10019000914110D311461846224600F0ADFA2D1AAF
:1001A00067EB01084F4622460120002100F0A4FA27
:1001B00017EB00094E41201EA4F10104DFDC484684
:1001C00031462A464346BDE8F09F0000004870478C
:1001D000405B000810B50446FFF7F8FF0068005DBB
:1001E00000F0010010BD40EA01039B0703D009E0C5
:1001F00008C9121F08C0042AFAD203E011F8013B13
:1002000000F8013B521EF9D27047D2B201E000F86B
:10021000012B491EFBD270470022F6E710B51346AA
:100220000A4604461946FFF7F0FF204610BD421E5D
:1002300012F8013F002BFBD111F8013B02F8013B02
:10024000002BF9D1704710B5044604E00B7800F894
:10025000013B03B1491C521EF8D2204610BDCAB260
:10026000401E10F8011F8A4202D00029F9D1002057
:100270007047421C10F8011B0029FBD1801A7047FF
:1002800010B5002200E0521C835C8C5CA34201D1BB
:10029000002BF8D1D8B2E1B2401A10BD10B5044617
:1002A00000E0401C0378002BFBD100E0401C521EF4
:1002B00004D311F8013B0370002BF7D1002101702A
:1002C000204610BD30B505460020034600E05B1C0B
:1002D000934205D2EC5CC85C201A01D1002CF6D107
:1002E00030BD000070B50F4D00B92868002412E041
:1002F0000A4602E09E4203D0521C1378002BF9D12B
:10030000DAB2224305D02BB124B1002100F8011B41
:1003100004E00446401C0678002EE9D128602046FF
:1003200070BD00004400002010B54843044603F0AF
:1003300043FC002805D00021002C02D0641E01558A
:10034000FAE710BD70B5064601F04AFB04680546A1
:100350000A220021304600F04FFA2C6070BD2DE9D2
:10036000FE4F804681EA0300C00F0C46009021F04A
:10037000004123F00045B8EB0200A94105D24046F8
:10038000214690461C460B46024623F0004010438F
:1003900047D0270DC7F30A00C3F30A510290401A51
:1003A000019040286BDAC3F3130040F4801B0098DF
:1003B000924620B10023D2EB030A63EB0B0B0198AA
:1003C0005946C0F14002504600F096F906460D46E7
:1003D00050465946019A00F0AEF910EB0800614111
:1003E000002487EA115284EAE7731A4340D0009A46
:1003F00062B3019A012A4FEA075215DC001B61EB38
:1004000002014FF0004202EA0752CDE90042001C0F
:1004100041F5801132462B4600F06CFA03B0BDE87E
:10042000F08F40462146F9E7001B61EB0201001CFA
:1004300041F5801300185B412018A2F5001747EB27
:10044000030140EAD570B6196D4111E06D084FEA1D
:10045000360645EAC0754FEA0752001B61EB020100
:10046000001C41F5801149084FEA30000019514144
:1004700032462B4603B0BDE8F04F00F02CBA00988E
:10048000012240000023D0EB020263EBE0730098EE
:1004900021464FEAE074B8EB000061EB0401E9E7A4
:1004A00083F000435BE781F0004158E72DE9FE4F00
:1004B00081EA030404F0004421F0004100944FF06D
:1004C000000B23F0004350EA01045ED052EA03041B
:1004D0005BD0C3F30A54C1F30A552C44A4F2F3349D
:1004E0000194A0FB0254C1F3130141F48011C3F342
:1004F000130343F4801301FB024400FB034E840A00
:10050000970A44EA815447EA8357A4FB0768029597
:100510008D0A05FB07854FEA932C04FB0C54270535
:10052000029D4FEA065847EA1637B5EB08056EEB11
:10053000070C870E920E47EA811742EA8312A7FB47
:100540000201B6EB0B0164EB00042B0D43EA0C3304
:100550005E1844EB1C50DA465146E7FB0201C5F336
:1005600013044FEA0B3343EA14534FEA0432019C5D
:1005700043EA0603A4F10C040294009CCDE900B404
:1005800000F0B8F903B0BDE8F08F00200146F9E7AC
:100590002DE9F04D81EA030404F0004B21F0004501
:1005A00014464FF0000A23F0004150EA050220D023
:1005B00054EA01021DD0C5F30A570246C5F31303DE
:1005C000C1F31300C1F30A5640F4801543F48013BD
:1005D000A7EB0608101BD64608F2FD3873EB0500A2
:1005E00002D308F1010801E092185B41B8F1000F55
:1005F00003DA00200146BDE8F08D00204FF48011A1
:10060000064684460EE0171B73EB050705D3121B45
:1006100063EB050306434CEA010C49084FEA30003E
:1006200092185B4150EA0107EDD152EA030012D063
:1006300082EA040083EA0501084305D0101BAB41A0
:1006400006D20122002306E000224FF0004302E020
:100650006FF0010253101AEB06004CEB085110EB3F
:100660000A0041EB0B01BDE8F04D00F034B900F099
:10067000004230F000400AD0C10D01F56071C0F3B6
:10068000160042EA0151C20840071143704700209A
:100690000146704701F0004330B421F0004150EAB8
:1006A000010206D00A0DA2F56072C1F31301002AFF
:1006B00002DC30BC00207047440F44EAC104C10092
:1006C000E01830BC00EBC25000F0CEB830B50B469D
:1006D000014600202022012409E021FA02F59D4272
:1006E00005D303FA02F5491B04FA02F52844151E46
:1006F000A2F10102F1DC30BD202A04DB203A00FA2D
:1007000002F1002070479140C2F1200320FA03F368
:10071000194390407047202A04DB203A21FA02F066
:100720000021704721FA02F3D040C2F1200291402B
:10073000084319467047202A06DBCB17203A41FAB6
:1007400002F043EAE07306E041FA02F3D040C2F15E
:100750002002914008431946704700000FB400235F
:1007600000B589B00CA900910B996FF00042CB60E5
:100770001E4B06931E4B07930423CDE901321D4AFD
:10078000089202466B46002000F0C4F909B05DF8FB
:1007900014FB70B586B006464FF0FF300091CDE9EE
:1007A0000101002015460C4604903246694604A813
:1007B000FFF7D4FF03460498211825B108B10A4673
:1007C00000E022462A6000280DD0002B02DD0098B0
:1007D000884208D0081B0094CDE9010432466946DE
:1007E00004A8FFF7BBFF06B070BD00004D0D000868
:1007F0006B0D0008D50100082DE9F04791460F4622
:1008000080460446002614F8015B2DB1FFF7DEFC9C
:100810000068405DC007F6D12B2D02D02D2D18D0D9
:10082000641E4A463946204600F0B0FA27B13968BE
:10083000A14201D1C7F8008071054FF002040BD529
:100840004042002803DD01F0CBF80460A007BDE8BA
:10085000F08746F48066E4E70028F8DA01F0C0F893
:1008600004606FF00040F2E70029A8BF7047401C09
:10087000490008BF20F00100704710B4B0FA80FCB6
:1008800000FA0CF050EA010404BF10BC704749B1F3
:10089000CCF1200421FA04F411FA0CF118BF012163
:1008A00021430843A3EB0C01CB1D4FEA00614FEA43
:1008B000102042BF002010BC704700EBC350104412
:1008C0000029A4BF10BC7047401C490008BF20F09D
:1008D000010010BC704710B5141E73F1000408DA53
:1008E000401C41F1000192185B411A4301D120F0F4
:1008F000010010BD2DE9F04D92469B4611B1B1FAB1
:1009000081F202E0B0FA80F220329046FFF7F4FE66
:1009100004460F4640EA0A0041EA0B0153465A4694
:10092000084313D0114653EA010019D0C8F1400220
:100930005046FFF7F0FE05460E46504659464246E1
:10094000FFF7DAFE084305D0012004E020463946CF
:10095000BDE8F08D0020054346EAE0762C4337439E
:100960000A986305E40AA0EB08000022FD0A44EAA5
:1009700047540A3002D500200146E9E70105101965
:100980006941DDE9084500196941BDE8F04DA2E77C
:10099000C1F30A52C1F3130140F2FF3341F4801155
:1009A0009A4202DA00200146704740F233439A42ED
:1009B000A2F2334202DC5242FFF7ADBEFFF79CBE0B
:1009C00030B5041E71F1000404DB4FF000444042D6
:1009D00064EB0101141E73F1000405DB1C464FF0AB
:1009E0000043524263EB0403994208BF904230BD7A
:1009F000064C074D06E0E06840F0010394E807006C
:100A000098471034AC42F6D3FFF796FB205D000800
:100A1000405D00082DE9FF4F087881B09946FF2816
:100A200005D0491C2D2804D00024002308E0002311
:100A30000BE00124F9E703EB830300EB4303491CBC
:100A40000878FF28F7D104B15B42002000901478A9
:100A500001462D2C01D02B2C04D1521C2D2C12D050
:100A60000024009400251678FF2E0ED00A24A0FB47
:100A700004C801FB0481002700FB0711521C16EB80
:100A80000C006941EFE70124EBE7994450EA0102C9
:100A90000ED00024AA4D2646DFF8A88200F0D3F934
:100AA00082468B46B9F1000009DAC9F100071BE064
:100AB00001980021C0E9001105B0BDE8F08F07469C
:100AC00012E0F80707D022462B4630464146FFF792
:100AD000EDFC0646884622462B4610461946FFF78F
:100AE000E5FC04460D467F10002FEAD1B9F1000F56
:100AF000324643465046594602DAFFF749FD01E0C7
:100B0000FFF7D4FC009A0AB181F00041019AC2E9D2
:100B10000001D1E72DE9FF4F1F468DB0D7E901460F
:100B20004FF0FF382E2045464FF000090B90B96971
:100B30006D1C0E988847396A824688470028F6D18E
:100B4000BAF1FF3F0AD024F4D064002E11DDBAF1CF
:100B50002B0F08D0BAF12D0F0BD102E0404611B097
:100B6000ABE744F48064B9696D1C0E9888478246EF
:100B7000761E6946600501D52D2000E02B208DF8FA
:100B8000000001F1010B0DF1200809E0B9696D1CAD
:100B90000E98884782460F9844F40074761E0560CC
:100BA000002E02DDBAF1300FF0D00B998A453ED10C
:100BB00044F0800406E00F99681CA9F1010944F48F
:100BC00000740860B9696D1C761E0E9888478246CD
:100BD0003028F0D02BE00B998A4505D1200603D4AC
:100BE00044F08004761E18E0504600F0CBFF08B3B6
:100BF0000DF11301761E44F400748B4508D2AAF15E
:100C000030000BF8010B200607D5A9F1010003E025
:100C1000200602D409F101008146A00502D50F99F2
:100C2000681C0860B9696D1C0E9888478246002EC2
:100C3000D1DC53E0002E51DDBAF1650F02D0BAF1DC
:100C4000450F4BD1A00549D5B9696D1C24F44074FA
:100C5000761E0E9888478246002E0CDD2B2804D085
:100C6000BAF12D0F07D144F48074B9696D1C0E9848
:100C700088478246761EE00501D52D2100E02B2114
:100C800008F8011BCDF82C8021E00DF12901761E1A
:100C900044F4007488450CD2AAF1300010F0FF0033
:100CA00088F8000002D10B99884509D908F101089C
:100CB00006E0E00501D5244801E042F20F708146CC
:100CC000B9696D1C0E98884782460F980560002E02
:100CD00004DD504600F056FF0028D6D1F9690E9881
:100CE0008847FF208BF8000088F80000002006905D
:100CF00007904B466A4608A906A8FFF78BFEA00599
:100D000002D46FF001002AE714F0240F0AD0E007A4
:100D100014D1DDE906123868031D3B600068C0E9A4
:100D200000120BE0DDE90601FFF7B4FC0146E00725
:100D300004D13868021D3A600068016028460EE759
:100D4000000024400000F03FF1D8FFFF426842B1AC
:100D5000016811F8013B23B1521EC0E90012184688
:100D600070470121C160881E704742685AB1C3684C
:100D7000016843B983688B4205D0491E521CC0E903
:100D80000012002070474FF0FF3070472DE9F05FF0
:100D900082460078002715468B460AF10104B946C1
:100DA000302801D09DB113E014F8010B01277828F9
:100DB00003D0582801D045B10AE00DB1102D07D15C
:100DC0000027102514F8010B02E0082500E00A2591
:100DD0000026B0460EE005FB080005FB06F10127E2
:100DE00001EB10461FFA80F8B6F5803F00D3B946F4
:100DF00014F8010B294600F018F80028EBDABBF1D3
:100E0000000F05D00FB1641E00E05446CBF800403F
:100E1000B9F1000F06D000F0E3FD02210160C81E09
:100E2000BDE8F09F48EA0640FAE73A2800D2303899
:100E300020F02002412A01D3A2F13700884201D3D9
:100E40004FF0FF3070470EB540F23342029200225D
:100E5000CDE900221346FFF74DFD03B000BD00BFF2
:100E6000FEE770472DE9F0410246002500260020EC
:100E700000230024002791F803C00CF00F0591F81F
:100E800003C00CF0100CBCF1000F03D091F802C0AD
:100E90004CEA050591F800C0BCF1000F31D0146890
:100EA00000202BE04FF0010C0CFA00F3B1F800C069
:100EB0000CEA03069E4220D183004FF00F0C0CFA7F
:100EC00003F7BC4305FA03FC4CEA040491F803C0A1
:100ED000BCF1280F06D14FF0010C0CFA00FCC2F84F
:100EE00014C00AE091F803C0BCF1480F05D14FF0DF
:100EF000010C0CFA00FCC2F810C0401C0828D1D329
:100F00001460B1F800C0BCF1FF0F34DD546800205C
:100F10002EE000F1080C4FF0010808FA0CF3B1F8CC
:100F200000C00CEA03069E4221D183004FF00F0C53
:100F30000CFA03F7BC4305FA03FC4CEA040491F8ED
:100F400003C0BCF1280F05D100F1080C08FA0CF819
:100F5000C2F8148091F803C0BCF1480F07D100F12A
:100F6000080C4FF0010808FA0CF8C2F81080401C79
:100F70000828CED35460BDE8F08102460020936873
:100F80000B400BB1012000E00020704700BFFEE7DE
:100F900008B50121082000F0CFF82020ADF80000AE
:100FA00048208DF8030069460148FFF75BFF08BD44
:100FB000000C014000BFFEE77047000070B5002143
:100FC00000230F22C47804B3154C246804F4E064B1
:100FD000C4F5E064210AC1F10403CA40447804FA6C
:100FE00003F184781440214309010E4C0678A15581
:100FF000047804F01F050124AC4005786D11AD00A4
:1010000005F1E025C5F8004109E0047804F01F056A
:101010000124AC40044D0678761145F8264070BD99
:101020000CED00E000E400E080E100E00249014353
:10103000024A1160704700000000FA050CED00E064
:1010400010B5044602A003F0E8FEE06010BD000009
:1010500068656C6C6F00000010B5044602A003F0D8
:10106000DCFEE06010BD000068656C6C6F00000085
:1010700010B5044602A003F0D0FEE06010BD0000F1
:1010800068656C6C6F00000010B5044602A003F0A8
:10109000C4FEE06010BD000068656C6C6F0000006D
:1010A00010B5044602A003F0B8FEE06010BD0000D9
:1010B00068656C6C6F00000010B50446012003F0F9
:1010C00087FEE06010BD000010B50446E0680078BF
:1010D000012802D00D48A06010BDE0680079012809
:1010E00008D1C3210A4800F09AFA4FF4FA6002F0DE
:1010F0003DF807E0B421064800F091FA4FF4FA6099
:1011000002F034F80020A06000BFE5E75BF0FFFFCD
:10111000002C01407047000029B1064AD269024301
:10112000044BDA6104E0034AD2698243014BDA617D
:10113000704700000010024029B1064A926902433C
:10114000044B9A6104E0034A92698243014B9A611D
:1011500070470000001002400F48006840F0010096
:101160000D490860084640680C4908400A49486033
:10117000084600680A4908400749086008460068B0
:1011800020F4802008600846406820F4FE00486093
:101190004FF41F0088607047001002400000FFF805
:1011A000FFFFF6FE30B500210022002400232D4D64
:1011B0006D6805F00C0121B1042905D0082923D15F
:1011C00005E0294D056022E0274D05601FE0254D13
:1011D0006D6805F47012234D6D6805F480340225A6
:1011E00005EB92421CB9214D554305600BE01D4DA6
:1011F0006D6805F400351DB11C4D5543056002E0D6
:10120000194D5543056002E0174D056000BF00BF52
:10121000144D6D6805F0F0010909154D6B5C05680A
:10122000DD4045600F4D6D6805F4E061090A104D21
:101230006B5C4568DD4085600A4D6D6805F4605162
:10124000C90A0B4D6B5C4568DD40C560054D6D6896
:1012500005F44041890B074D6B5CC568B5FBF3F5A0
:10126000056130BD0010024000127A0000093D0007
:10127000000000201000002010B5014600220023CD
:1012800000204A11012A02D1094C236806E0022AF3
:1012900002D1074C236A01E0054C636A01F01F028A
:1012A000012494401C400CB1012000E0002010BD3E
:1012B000001002400248406800F00C007047000037
:1012C0000010024001460020034A506820F0F00060
:1012D0000843506070470000001002400149086058
:1012E000704700000000424201460020034A506857
:1012F00020F4E06008435060704700000010024096
:1013000001460020034A506820F4605040EAC100C2
:1013100050607047001002400149086670470000A5
:101320000000424202460020044B586820F47C1022
:1013300042EA01031843014B586070470010024015
:1013400001460020034A506820F003000843506023
:101350007047000000100240704710B504466068F6
:10136000062818D2DFE800F01703070B0F132046FA
:10137000FFF766FE13E02046FFF76EFE0FE0204603
:10138000FFF776FE0BE02046FFF77EFE07E02046E3
:10139000FFF786FE03E06FF47A60A06000BF00BF35
:1013A00010BD10B504466068042803D12046FFF73D
:1013B00083FE03E06FF47A60A06000BF00BF10BD41
:1013C00010B504466068042803D12046FFF77CFE70
:1013D00002E00248A06000BF00BF10BD5EF0FFFF4A
:1013E000042808D14FF0E021096941F004014FF0D1
:1013F000E022116107E04FF0E021096921F00401CA
:101400004FF0E022116170477047000010B51E4890
:10141000006840F010001C4908600846006820F091
:10142000030008600846006840F002000860FFF70B
:1014300093FE0120FFF752FF00BF2120FFF71CFFA2
:101440000028FAD00020FFF73DFF4FF48060FFF73F
:101450004BFF0020FFF754FF4FF460110020FFF70F
:1014600061FF0120FFF758FF00BF3920FFF704FF9D
:101470000028FAD00220FFF763FF00BFFFF71AFF32
:101480000828FBD110BD00000020024030B589B013
:1014900005460C460121C802FFF74EFE012104203B
:1014A000FFF74AFE4FF48070ADF8200018208DF849
:1014B000230003208DF8220008A91848FFF7D2FC6A
:1014C000ADF81850ADF814400020ADF81A00ADF892
:1014D000160005A9124800F0A5F87020ADF8040028
:1014E0000120ADF806000020ADF80A00ADF80C00B0
:1014F00001A90B4800F03EF80121094800F02AF844
:101500000821074800F082F80121054800F00AF898
:101510000121034800F012F809B030BD0008014075
:10152000002C014021B1028842F08002028004E0D8
:1015300002884FF67F731A400280704721B10288FB
:1015400042F00102028004E002884FF6FE731A4066
:101550000280704731B1B0F8442042F40042A0F854
:10156000442005E0B0F84420C2F30E02A0F8442065
:101570007047000070B5002400220023058C4FF650
:10158000FE7635400584028C8388048B4FF68F7578
:101590002C40B51E2C400D882C43751E2A400D8909
:1015A0002A434D882A43144DA8420BD0134DA8421C
:1015B00008D0134DA84205D0124DA84202D0124DBA
:1015C000A84213D14FF6F7752A404D892A434FF6AA
:1015D000FB752A408D882A434FF6FF652B404FF656
:1015E000FF552B408D892B43CD892B43838004836A
:1015F000CD888586028470BD002C014000340140F6
:101600000040014000440140004801400A460021DA
:10161000018B4FF6F77319401143018370478186A0
:1016200070470000002202881D4B98420ED01D4BCF
:1016300098420BD0B0F1804F08D01B4B984205D098
:101640001A4B984202D01A4B984204D14FF68F732E
:101650001A404B881A43174B984207D0164B9842B2
:1016600004D04FF6FF431A40CB881A4302808B8880
:1016700083850B8803850A4B98420BD0094B98420F
:1016800008D00E4B984205D00D4B984202D00D4B1E
:10169000984201D10B7A03860123838270470000B0
:1016A000002C0140003401400004004000080040CC
:1016B000000C0040001000400014004000400140B9
:1016C000004401400048014010B540F225511D483A
:1016D00000F07CF810B31B4800F034F9C4B21A488B
:1016E000008800F40040C8B91748008800F4804022
:1016F00060B10A2C03D000201349088020E0124872
:10170000008840F400401049088019E00D2C06D1F3
:101710000D48008840F480400B49088010E00A48DA
:101720000088C0F30D0009490C5407480088401C8C
:101730000549088008460088FF2801DD0020088050
:1017400010BD00000038014034000020540000208B
:1017500010B540F22551084800F038F858B140F271
:101760002551054800F00AF8034800F0EBF8C4B230
:10177000204601F029F910BD0044004010B50022B8
:10178000002340F66A14A14200D100BF0A120124CE
:101790009440A3B2DC43048010BD21B1828942F49D
:1017A0000052828104E082894DF6FF731A408281E3
:1017B000704702460020B1F5007F00D100BF1388BA
:1017C0000B400BB1012000E00020704770B50246CD
:1017D000002400230025002040F66A16B14200D103
:1017E00000BFC1F3421501F01F03012606FA03F3FF
:1017F000012D02D19689334006E0022D02D1168ACE
:10180000334001E0968A33400C12012606FA04F4B4
:101810001688344013B10CB1012000E0002070BDE7
:10182000F0B50346002400260025002040F66A1784
:10183000B94200D100BF1846C1F3421401F01F069F
:10184000012707FA06F5012C01D10C3004E0022C27
:1018500001D1103000E014301AB107682F4307603F
:1018600002E00768AF430760F0BD00002DE9F047D4
:1018700086B005460E460024A24600BFA1460027BA
:10188000B08900B100BF2F462C8A4CF6FF7004408F
:10189000F08804432C82AC894EF6F3100440B088E3
:1018A00031890843718908430443AC81AC8A4FF6FF
:1018B000FF400440B0890443AC8201A8FFF772FCEA
:1018C0001F48874202D1DDF810A001E0DDF80CA02E
:1018D000A88900F4004040B10AEBCA0000EB0A10EE
:1018E00031684900B0FBF1F807E00AEBCA0000EBF1
:1018F0000A1031688900B0FBF1F86420B8FBF0F001
:1019000004012009642101FB1089A88900F400402A
:1019100040B1322000EBC900B0FBF1F000F007004D
:10192000044308E0322000EB09106421B0FBF1F021
:1019300000F00F0004432C8106B0BDE8F0870000E2
:101940000038014001468888C0F308007047C1F3A1
:1019500008028280704700BFFEE72DE9F04106468D
:101960000C461746002506F1110001F068FB002027
:101970002060B8B201F0FAFB00E06D1C601900F0C5
:1019800027FD0028F9D1605506F1110001F059FB3F
:101990002846BDE8F08100000FB4054B10B503A93F
:1019A000044A029800F07CF910BC5DF814FB0000BA
:1019B000E1380008300000200FB41CB50A46521E62
:1019C000CDE9000207A9054B6A46069800F068F9C0
:1019D000009A002111701CBC5DF814FB252400083E
:1019E0000048704750000020014800687047000020
:1019F0005000002002E008C8121F08C1002AFAD1D6
:101A000070477047002001E001C1121F002AFBD17E
:101A10007047000001490860704700005000002036
:101A20002DE9FF5FDDE90220010DDDF838B002434A
:101A300018D044F61050A1F2FF3141430D140F9815
:101A4000012820D0A5EB0B00401C5FEA000A4FF0F4
:101A50000004474EDFF81C91A046504616D5CAF147
:101A6000000728E00F98012443A2012808D0002194
:101A700000980F9BC0E90021C0E90243BDE8FF9F29
:101A80006FEA0B01F4E7CBF10000DEE7074612E056
:101A9000F80707D02246334640464946FEF706FD82
:101AA000804689462246334610461946FEF7FEFC1C
:101AB00004460E467F10002FEAD1DDE90201BAF19B
:101AC000000F42464B4602DAFEF7F0FC01E0FEF75B
:101AD0005FFD04460E460022284BFEF771FF03D837
:101AE0004FF0FF30014607E00022254B20463146EB
:101AF000FEF735FCFEF74CFF102409E0002C0ADB52
:101B00000A220023FEF730FB019B30321A55641E77
:101B100050EA0102F2D1641C019AC4F11103144489
:101B20000F9A012A03D0012208430DD10AE008438D
:101B300004D000204FF0110B0F9080E7A3EB0B05B2
:101B40006D1E0DE05B4504DD4FF0000205F101055F
:101B500004E003DA4FF00002A5F10105002AECD001
:101B600000980F99C0E90231C0E9004586E70000FE
:101B7000000024400000F03F300000000000F0436F
:101B80000000E03F30380A2801D2012070470020D1
:101B9000704700002DE9F84F0446884616464FF07E
:101BA000000A1CB1B8F1000F00D08EB900BF01F0DF
:101BB0004CFA1A20184B19A21FA1009021A0FFF780
:101BC000EBFE01F043FA00BF4FF0FF30BDE8F88FA5
:101BD000A14609F15007414638463A6B9047054601
:101BE000002D02DA4FF0FF30F0E7B54211D200BF0E
:101BF0001F480068032809DC01F027FA2723064A5A
:101C000006A11CA0FFF7C8FE01F020FA00BF4FF0AC
:101C1000FF3A5046DAE700009E5900082E2E5C2E4F
:101C20002E5C2E2E5C6D69696F5C6D69696F5F61FA
:101C300070692E63000000006D69696F5F617069F3
:101C4000000000005B455D2025733A2068616E64EA
:101C50006C65206F722070627566206973206E75E6
:101C60006C6C202825732C2025732C2025642900DA
:101C7000380000205B455D20756172742073656ECD
:101C80006420726573756C74206661696C6564208C
:101C90002825732C2025732C2025642900000000A2
:101CA0002DE9FF4F95B09B468946064600250FE279
:101CB000252877D100242746F84A0121059400E021
:101CC000044316F8013F203B01FA03F01042F7D11C
:101CD00030782A2811D06FF02F033078A0F130022D
:101CE000092A16D8059A44F0020402EB820203EB9B
:101CF00042021044761C0590EFE759F8042B059238
:101D0000002A03DA504244F40054059044F00204DF
:101D1000761C30782E2816D116F8010F44F00404F2
:101D20002A280DD06FF02F023078A0F13003092B54
:101D300009D807EB870302EB4303C718761CF3E7C8
:101D400059F8047B761C30786C280FD006DC4C28C0
:101D500017D068280DD06A2814D104E0742810D058
:101D60007A280FD10DE044F400140AE044F4801402
:101D700001E044F440147278824202D104F58014E8
:101D8000761C761C307866280BD013DC582877D068
:101D900009DC002875D04528F6D04628F4D047281D
:101DA0001AD19DE118E0632835D0642879D06528E0
:101DB00012D195E1702873D008DC6728F1D069282A
:101DC0006FD06E280DD06F2806D1B5E073282CD0C7
:101DD000752875D0782874D05A46179990476D1C8D
:101DE00075E1C4F30250022809D003280DD0D9F8B8
:101DF000001004280DD00D6009F1040967E1D9F83D
:101E00000010EA17C1E90052F6E7D9F800100D807A
:101E1000F2E70D70F0E719F8041B8DF800100020B0
:101E20008DF80100EA46012003E059F804AB4FF0B9
:101E3000FF3061074FF0000102D40DE008F101010D
:101E40008846B9420FDA8045F8DB1AF808100029F5
:101E5000F4D108E008F1010188468142FADB1AF862
:101E600008100029F6D105985B46A0EB080721462B
:101E70003846179A00F094FA284400EB080507E06A
:101E80004DE029E10DE01AF8010B5A4617999047E9
:101E9000B8F10108F7D25B4621463846179A13E19C
:101EA00042E00A220092C4F302524FF0000A022AD2
:101EB00008D059F804CB032A4FEAEC710AD00DE0A0
:101EC00029E02AE009F1070121F00702F2E802C146
:101ED000914609E00FFA8CFC4FEAEC71042A03D119
:101EE0004FFA8CFC4FEAEC71002907DA0A46002110
:101EF000DCF1000C61EB02012D2202E0220504D589
:101F00002B228DF80420012203E0E20701D02022D9
:101F1000F7E7904659E00A2102E010220DE0102177
:101F20004FF0000A00910BE010224FF0000A44F03D
:101F300004040827009203E008224FF0000A0092F0
:101F4000C4F30252022A05D059F804CB0021032A17
:101F500008D009E009F1070121F00702F2E802C107
:101F6000914605E01FFA8CFC042A01D10CF0FF0C0D
:101F70004FF00008220728D5702806D0009B83F078
:101F8000100353EA0A0305D00EE040228DF8042026
:101F9000012208E05CEA010206D030228DF804201C
:101FA0008DF8050002229046009B83F0080353EA57
:101FB0000A030AD15CEA010201D1620705D5302289
:101FC0008DF804204FF001087F1E582804D034A05B
:101FD00003900EA802900DE036A0F9E75346604644
:101FE000009AFEF7C1F884460398825C0298401E6E
:101FF000029002705CEA0100F0D1029806A9081A6A
:1020000000F1200A600702D524F4803400E00127A3
:10201000574502DDA7EB0A0000E0002000EB0A01B3
:10202000009005984144401A0590E00306D45B46B1
:102030002146179A059800F0B3F90544002706E0F9
:1020400001A85A46C05D179990476D1C7F1C4745F3
:10205000F6DBE0030CD55B462146179A059800F0A5
:102060009FF9054404E030205A46179990476D1CAB
:102070000099481E00900029F5DC08E002980299BA
:102080005A460078491C0291179990476D1CBAF185
:102090000001AAF1010AF1DC65E100000928010054
:1020A00030313233343536373839616263646566CE
:1020B0000000000030313233343536373839414290
:1020C000434445460000000000F058F90544761CE2
:1020D000307800287FF4ECAD19B02846BDE8F08FC9
:1020E000620700D4062709F1070222F0070CFCE87A
:1020F0000223E14603F000485FEA080C02D00FF229
:10210000702C0DE05FEA045C02D50FF2682C07E04A
:102110005FEAC47C02D00FF2602C01E0AFF2700CD9
:102120004FF0FF3823F00043CDF850C065280CD0A5
:1021300006DC452809D046281DD047283DD13DE082
:10214000662818D067287ED138E00021112F01DBE6
:10215000112000E0781CCDE9000106A90EA8FFF7C8
:102160005FFCDDE90F010E9A03910021009207F157
:10217000010A04914DE04FF000400097CDE90110B5
:1021800006A90EA8FFF74CFCDDE90F0203920E9B97
:1021900011990022DDF80CA00093049211B9791C6A
:1021A00000EB010AB7EB0A0004D4C0F1FF3007F1DD
:1021B000010A0490AAEB0700019044E0012F00DA25
:1021C00001270021112F01DD112000E03846CDE963
:1021D000000106A90EA8FFF723FCDDE90F010E9A06
:1021E0000391002104910092BA4621070CD403996F
:1021F000514500DA8A46BAF1010F05DD009AAAF1CD
:102200000101515C302908D0B84202DA10F1040F04
:1022100006DA0121CDE9011015E0AAF10101E9E793
:10222000002805DC049901440491AAEB000102E0B6
:10223000411C514500DD8A460499401A401C01901A
:102240004FF000400290200704D40198504501DB74
:10225000CDF8048000208DF84F0002980DF14F0753
:10226000B0F1004F25D02B200E9002984FF00208BD
:1022700000280CDA404202902D200E9007E00A213F
:102280000298FEF723FA3031029007F8011DB8F1E9
:102290000001A8F10108F2DC02980028EFD1791EB4
:1022A0000E980870307800F0200040F0450007F8E4
:1022B000020D12A8C01B00F107081498007800B1A5
:1022C000012000EB0A01019801EBE07105984144FF
:1022D000401A401E0590E00306D45B462146179A3B
:1022E000059800F05DF805441498007818B15A4636
:1022F000179990476D1CE00324D55B462146179A39
:10230000059800F04DF805441CE00498002807DB10
:10231000DDE90301884203DD0098405C179901E084
:10232000179930205A469047049805F10105401C42
:1023300004900198401E019004D12E205A4617990E
:1023400090476D1CBAF10001AAF1010ADDDC05E03D
:1023500017F8010B5A46179990476D1CB8F1000108
:10236000A8F10108F4DC5B462146179A0598ABE614
:102370002D0000002B000000200000002DE9F0419E
:10238000044600251E461746880404D405E0394655
:102390002020B0476D1C641EF9D52846BDE8F081A9
:1023A0002DE9F041044600251E469046C80301D59C
:1023B000302700E02027880404D505E04146384650
:1023C000B0476D1C641EF9D52846BDE8F0810000B9
:1023D00010B504461248808808B9002010BD0020BE
:1023E00000F08CF80E480188801D405C20700C487D
:1023F0000088401CB0F57A7F04DB09480088A0F211
:10240000E73002E006480088401C0549088008467D
:102410008088401E8880012000F070F80120DDE7F0
:10242000540100204A68002A06D00A68531C0B6039
:1024300010704868401E48607047000010B586B0B4
:10244000044600BF01210420FEF776FE0121480466
:10245000FEF762FE0420ADF8140003208DF816008C
:1024600018208DF8170005A92248FEF7FBFC08206C
:10247000ADF8140004208DF8170005A91D48FEF7DB
:10248000F1FC26208DF8000003208DF801000120CA
:102490008DF802008DF803006846FEF78FFD4FF4BB
:1024A000E13001900020ADF80800ADF80A00ADF869
:1024B0000C00ADF810000C20ADF80E0001A90E487C
:1024C000FFF7D4F9012240F225510B48FFF7A8F994
:1024D00001210948FFF761F900BF4FF4E1302060A6
:1024E00008202071002060710120A071002006B03A
:1024F00010BD0000000801400044004010B5044633
:1025000034B9002240F225510548FFF789F905E06A
:10251000012240F225510248FFF782F910BD000068
:10252000004400402DE9F04104460E4617460025C0
:1025300004F1110000F083FD04F1110000F081FDB1
:102540002846BDE8F08100002DE9F04706460D461B
:10255000174699460024A04606F1110000F06FFDD1
:1025600039462846FDF758FE4AE0BC4210DB00BF62
:1025700000F06BFD43463A462CA12FA0FFF70CFA62
:1025800000F064FD00BF39462846FDF745FE0024F3
:102590001FFA89F000F0EAFD2BE0641CBC420FDB5F
:1025A00000BF00F052FD3A4620A12CA0FFF7F4F93D
:1025B00000F04CFD00BF39462846FDF72DFE0024F3
:1025C000281910F8010C0D2813D10020285500BF40
:1025D00000F03BFD2A4615A127A0FFF7DDF900F02A
:1025E00035FD00BF06F1110000F02BFD2046BDE8CF
:1025F000F0872819FFF7ECFE0028CED108F101087A
:10260000B8F1190FB1DB00240020285500BF00F0FD
:102610001CFD06A11DA0FFF7BFF900F017FD00BFCC
:1026200006F1110000F00DFD2046E0E761726368DD
:102630005F756172740000005B495D2025733A206C
:102640006F7574206F6620627566666572202564FA
:102650002072657472793D25640A00005B495D2033
:1026600025733A206F7574206F6620627566666503
:10267000722025640A0000005B495D2025733A2022
:10268000726563763A202573200A00005B495D205D
:1026900025733A206E6F7420676F742072656376BD
:1026A000200A000070B504460E46002504F1100013
:1026B00000F0C5FC00BF40211848FFF77AF8002859
:1026C000F9D031461548FFF742F96D1C00BF402193
:1026D0001248FFF76EF80028F9D004F1100000F05E
:1026E000B0FC012D0DDA00BF00F0AFFC32460CA1AA
:1026F0000EA0FFF751F900F0A9FC00BF6FF0030036
:1027000070BD00BF00F0A1FC324605A110A0FFF78C
:1027100043F900F09BFC00BF2846F1E7004400406D
:10272000617263685F756172740000005B495D20CF
:1027300025733A2073656E64206279746520666142
:10274000696C6564203A2025785B6865785D0000D7
:102750005B495D2025733A2073656E64206279744D
:1027600065203A2025785B6865785D002DE9F041A9
:1027700005460C462046FDF77CFD06460027B84678
:10278000002E02DC0020BDE8F08105F1100000F011
:1027900056FC4FF000080EE000BF40211A48FFF73A
:1027A00008F80028F9D014F808101748FFF7CFF8F8
:1027B0007F1C08F10108B045EEDB00BF4021124844
:1027C000FEF7F7FF0028F9D005F1100000F039FC02
:1027D000B7420CDA00BF00F038FC0CA10EA0FFF7E6
:1027E000DBF800F033FC00BF6FF00300CBE700BF65
:1027F00000F02BFC224605A10EA0FFF7CDF800F05B
:1028000025FC00BF3846BEE70044004061726368A3
:102810005F756172740000005B495D2025733A208A
:1028200073656E6420737472696E67206661696C8B
:10283000656400005B495D2025733A2073656E6412
:1028400020737472696E67203A20257300000000BF
:102850002DE9F041ADF5487D04460D462846FDF7CB
:1028600008FD06460027B8464FF448716846FDF754
:10287000D3FC002E04DC00200DF5487DBDE8F0817E
:102880004FF448716846FDF7C7FC04F1100000F0F2
:10289000D6FB4FF000080EE000BF40212848FEF7AD
:1028A00088FF0028F9D015F808102548FFF74FF8E1
:1028B0007F1C08F10108B045EEDB00BF4021204835
:1028C000FEF777FF0028F9D004F1100000F0B9FB03
:1028D000B7420CDA00BF00F0B8FB1AA11CA0FFF74A
:1028E0005BF800F0B3FB00BF6FF00300C4E700BF6C
:1028F00000F0ABFB2A4613A11FA0FFF74DF800F034
:10290000A5FB00BFC8239A0069462046D4F824C01E
:10291000E04702221FA16846FDF7D4FC68B100BF62
:1029200000F093FB6A4607A11BA0FFF735F800F003
:102930008DFB00BF6FF004009EE738469CE7000067
:1029400000440040617263685F756172740000004A
:102950005B495D2025733A2073656E642073747241
:10296000696E6720776169742061636B20666169B5
:102970006C656420310000005B495D2025733A20BE
:1029800073656E6420737472696E67203A202573D4
:10299000000000006F6B00005B495D2025733A204A
:1029A00073656E6420737472696E672077616974F1
:1029B0002061636B206661696C65642032207374EA
:1029C000723D25730A000000014610488088B0F56A
:1029D0007A7F01DB002070470C484288801D8154BB
:1029E000801F4088401CB0F57A7F04DB0748408890
:1029F000A0F2E73002E005484088401C034A5080BE
:102A000010468088401C90800120E4E7540100209B
:102A10002DE9F84F81460C4615464FF0000A00F0AC
:102A200069FA0646204601F0C7F8074617B90020A4
:102A3000BDE8F88F21463846FDF7EEFB621E494699
:102A40003846FDF7D0FB4FF000083FA13846FDF7B0
:102A500049FC80463CA10020FDF744FC804614E080
:102A600039A10020FDF73EFC804637A10020FDF78C
:102A700039FC804634A10020FDF734FC804632A1A9
:102A80000020FDF72FFC80466D1E002DE8D100BF11
:102A90002DA10020FDF726FC80464046FDF752FCA4
:102AA000306029A10020FDF71DFC80464046FDF75F
:102AB00049FC7060AB461BE04046FDF743FC0090CC
:102AC00021A10020FDF70EFC8046B8F1000F03D0D5
:102AD0000BF10100052802DD6FF0090A0FE05B46EB
:102AE0000BF1010B41463046009A01F09BF800BF04
:102AF00015A10020FDF7F6FBB0F10008DCD100BF06
:102B0000BAF1000F00D000E000BF00BFBAF1000F23
:102B100013D000BF0D480068032809DC00F095FAC7
:102B200059230B4A0BA119A0FEF736FF00F08EFACD
:102B300000BF304600F042F8002617B1384600F0DA
:102B4000DDFE304674E70000200000003800002061
:102B50004C5A00082E2E5C2E2E5C2E2E5C6D696960
:102B60006F5C6465766963655C636F6465635C6113
:102B70006374696F6E5F6F7065726174696F6E5FA9
:102B80006465636F6465722E630000005B455D20C1
:102B9000726561647920746F2064656C657465206A
:102BA00070726F70657274792076616C756520281B
:102BB00025732C2025732C202564290010B504468C
:102BC000206910B1206900F049FA606910B16069AC
:102BD00000F044FA204600F091FE10BD2DE9F047C8
:102BE0009AB00646894614464FF0000A1EB1B9F164
:102BF000000F00D02CB96FF0090A50461AB0BDE89A
:102C0000F087002016901790189019901690179042
:102C10001890199012901390149015901290139090
:102C2000149015900E900F90109011900E900F90A0
:102C3000109011900A900B900C900D900A900B90B0
:102C40000C900D905FA2102116A82368FEF7B4FE29
:102C50005CA2102112A86368FEF7AEFE59A21021F3
:102C60000AA8E368FEF7A8FEE06830B156A2012189
:102C7000304602F039F90020C0E753A00AA952A259
:102C800012ABCDE90032CDE902104FA316AA0621FE
:102C9000304602F029F900258CE06069001D50F8EB
:102CA000353048A210210EA8FEF786FE46A30EAAD4
:102CB0000221304602F018F96069001D00EBC500E2
:102CC0004068007800286DD0012804D0022815D073
:102CD000032868D120E06069001D00EBC500406852
:102CE000007928B9052239A13046FDF7D7FA04E06A
:102CF000042238A13046FDF7D1FA54E037A0009005
:102D00006069001D00EBC5004068031D33A203216C
:102D1000304602F0E9F846E06069001D00EBC500AE
:102D200040680079C0B9202102A8FDF775FA6069F2
:102D3000001D00EBC500406822A22021836802A884
:102D4000FEF73AFE02A8FDF794FA07463A4602A9B2
:102D50003046FDF7A3FA00BF6069001D00EBC50017
:102D60004068007901281CD1202102A8FDF754FAFF
:102D70006169091D01EBC5014968C868FDF777FC69
:102D800017A2CDE90001202102A8FEF715FE02A836
:102D9000FDF76FFA07463A4602A93046FDF77EFA7C
:102DA00000BF00E000BF00BF07A20121304602F0D3
:102DB0009BF86D1C60690068A8423FF76EAF5046F3
:102DC0001CE70000256400002000000066616C73B1
:102DD00065000000747275650000000022000000AC
:102DE0002566000038B504460D46002C0FD100BF03
:102DF00000F02BF96120144B14A222A1009028A00E
:102E0000FEF7CAFD00F022F900BF201F38BD2046A2
:102E1000FDF72FFAA84210D300BF00F016F9652085
:102E2000094B0AA217A1009026A0FEF7B5FD00F0FD
:102E30000DF900BF6FF00A00E8E72DA12046FDF76D
:102E4000F6F90020E2E70000645A00082E2E5C2EFE
:102E50002E5C2E2E5C6D69696F5C646576696365B6
:102E60005C636F6465635C616374696F6E5F6F70F0
:102E700065726174696F6E5F656E636F6465722EF3
:102E800063000000616374696F6E5F6F70657261EB
:102E900074696F6E5F656E636F6465720000000039
:102EA0005B455D2025733A2070627566206973204A
:102EB0004E554C4C202825732C2025732C2025643E
:102EC000290000005B455D2025733A207061726126
:102ED0006D73206F7574206F662072616E67652058
:102EE0002825732C2025732C202564290000000040
:102EF0000D00000010B5002400BF182000F05CFE9B
:102F0000044604B91CE018212046FDF785F900208D
:102F1000E0602060606000F0BFF82061206920B9A7
:102F20002046FFF74BFE00240AE000F0B5F8606190
:102F3000606920B92046FFF741FE002400E000BF91
:102F400000BF204610BD014600207047014600200A
:102F500070470000F0B5ADF5497D0446264606F100
:102F600050054FF4487101A8FDF756F94FF4487128
:102F700001A8FDF751F90CA12846EA699047C8233A
:102F80009A0001A928466F6AB84700BF00F05DF8B3
:102F900001AA08A10BA0FEF7FFFC00F057F800BF44
:102FA00000200DF5497DF0BD726573746F72650D7B
:102FB00000000000757365725F6170705F66756E0A
:102FC000630000005B495D2025733A2025730000F3
:102FD00010B500F0A9F84FF4A060FEF727F84FF401
:102FE000E13002F009F800BF00F02FF804A107A0BB
:102FF000FEF7D2FC00F02AF800BF002010BD000050
:10300000617263685F696E69740000005B495D20EE
:1030100025733A203C2A2A2A2A2A2A20616464201D
:103020006D637520696E69742066756E63206865CE
:103030007265202A2A2A2A2A2A3E000070477047F1
:1030400070477047034600207047704710B502A0D4
:10305000FEF7A2FC10BD00000D0A000070B504468A
:103060000025C4B100BF10E0201D00EBC500406882
:1030700050B1211D01EBC501486801F081FE00211E
:10308000201D00EBC50041606D1C2068A842EBDCF0
:10309000204600F033FC70BD10B5002400BF2C208A
:1030A00000F08AFD044604B906E02C212046FDF715
:1030B000B3F80020206000BF00BF204610BD30B52F
:1030C00083B00446FEF790FC05460020CDE90000E1
:1030D000024621466846FDF75CFB2846FEF79AFC4F
:1030E000DDE9000103B030BD30B50246002016E036
:1030F00012F8015B80EA052000230DE000F4004493
:103100002CB141F2210484EA4004A0B203E04FF65E
:10311000FF7404EA40005B1C082BEFDB00BF0B1EB2
:10312000A1F10101E4D130BD10B56FF00400FEF74C
:1031300057F90A4800680A49B0FBF1F009490870DC
:103140000846007800EB4001C1EBC0104FF6FF715C
:1031500001EAC0000449088010BD000018000020EA
:1031600000127A002C0000202E0000200146114A97
:1031700012884A434FF0E0235A6100229A611A46AE
:10318000126942F001021A6100BF4FF0E02210699B
:1031900000F001021AB100F48032002AF5D04FF09D
:1031A000E022126922F001024FF0E0231A610022AE
:1031B0009A6170472E0000200146114A12784A4356
:1031C0004FF0E0235A6100229A611A46126942F0D8
:1031D00001021A6100BF4FF0E022106900F0010205
:1031E0001AB100F48032002AF5D04FF0E0221269C3
:1031F00022F001024FF0E0231A6100229A61704729
:103200002C000020F8B506460C46154600BFFFF717
:103210001CFF0BA10D48FEF7BFFBFFF717FF00BF18
:1032200000BF0027009500233046D4E9002100F0BC
:1032300039FA074607B100E000BF00BF0020F8BD23
:103240006D69696F5F6D61696E000000445B000825
:103250002DE9F04106460C46154600BFFFF7F5FE86
:103260000BA10E48FEF798FBFFF7F0FE00BF00BF72
:1032700000272B463046D4E9002100F0DBF8074652
:1032800007B100E000BF00BF0020BDE8F0810000F2
:103290006D69696F5F6D61696E000000CC5B00084D
:1032A00070B504460D46164600BFFFF7CEFE05A1D9
:1032B0000748FEF771FBFFF7C9FE00BF00BF00BF64
:1032C000002070BD6D69696F5F6D61696E000000FF
:1032D000545C00082DE9F04704460D46164600BF31
:1032E000FFF7B3FE14A11748FEF756FBFFF7AEFE3B
:1032F00000BF00BF4FF00008C1462046FFF723FE85
:103300008146B9F1000F07D0A2460AF150070EA17D
:1033100038463A6B90470BE033462046D5E900210A
:1033200000F09AF98046B8F1000F00D000E000BF2D
:1033300000BF0020BDE8F0876D69696F5F6D61694E
:103340006E000000105C0008726573756C742022BA
:1033500062757379220D00002DE9F04106460C4696
:10336000174620216068FCF77AFF05461DB94FF02B
:10337000FF30BDE8F08100BFFFF767FE681C05461F
:10338000024606A108A0FEF707FBFFF75FFE00BF9D
:103390006068FFF7DBFD0020EBE700006D69696FF7
:1033A0005F6D61696E0000005B495D2025733A2006
:1033B000257300002DE9F04106460C46154600BF76
:1033C00000272046FCF755FF80462B464246214603
:1033D000304601F05FFD074607B100E000BF00BFC7
:1033E0000020BDE8F0810000F8B506460C46154601
:1033F00000BFFFF72AFE0BA10D48FEF7CDFAFFF73D
:1034000025FE00BF00BF0027009501233046D4E908
:10341000002100F047F9074607B100E000BF00BFF8
:103420000020F8BD6D69696F5F6D61696E00000015
:10343000885B00082DE9FF4FADF5497D89461546AB
:103440009A460020C89029460120FCF76DFF0646E9
:10345000002E12D100BFFFF7F8FDDB20494B4AA236
:1034600054A1009058A0FEF797FAFFF7EFFD00BFB8
:10347000701E0DF54D7DBDE8F08F6A1E4946304641
:10348000FCF7B1FE0021681E315400245AA13046D9
:10349000FCF728FF834658A10020FCF723FF834652
:1034A0000AE055A10020FCF71DFF8346BBF1000F89
:1034B00001D0641C00E000E0F3E700BF042C23DB34
:1034C000204604EBD0714910A4EB410100291BD028
:1034D00000BF4A48006803280BDCFFF7B6FDEE206A
:1034E000284B29A246A1009049A0FEF755FAFFF704
:1034F000ADFD00BF4FF0FF30C8904E4A4EA1C998B5
:1035000001F0A0FCC898B4E7E01CC11700EB917172
:103510008C1000BF4FF448716846FCF77DFE4CA24A
:103520000121684601F0E0FC002716E03A462946F2
:103530004846FFF76DFA8046B8F1000F00D10EE063
:10354000404601F005F942464FF448716846FFF7DE
:1035500045FB4046FFF732FB7F1CA742E6D300BF86
:103560004FF448716846FFF73DFC6A465146C998DA
:1035700001F041F800BF16B1304600F0BFF9C8981D
:1035800077E700001E5A00082E2E5C2E2E5C2E2E91
:103590005C6D69696F5C6465766963655C6F7065B5
:1035A000726174696F6E5F6578656375746F722E92
:1035B000630000006F7065726174696F6E5F65789B
:1035C000656375746F7200005B455D2025733A205A
:1035D000636F6D6D616E6420627566206D616C6CE9
:1035E0006F63206661696C6564202825732C202533
:1035F000732C2025642900002000000038000020E2
:10360000706172616D73206572726F7200000000EC
:103610005B455D206F7065726174696F6E5F657880
:10362000656375746F72202825732C2025732C20F8
:1036300025642900F2D8FFFF6572726F7220636FF4
:103640006D6D616E6420706172616D7300000000C9
:10365000726573756C7420002DE9F05F044689462D
:1036600092469B460027254605F1500605F1840841
:1036700008A13046326B9047002802DA781EBDE878
:10368000F09F404601F0CEFE08B14FF0FF373846BC
:10369000F5E70000726573756C74202272656164D1
:1036A00079220D002DE9FF4FADF54B7D8A46154679
:1036B0001F460020CA9029460120FCF735FE064629
:1036C000002E12D100BFFFF7C0FC84205B4B5CA230
:1036D00066A100906AA0FEF75FF9FFF7B7FC00BF94
:1036E000701E0DF54F7DBDE8F08F6A1E51463046C5
:1036F000FCF779FD0021681E315400246CA130468E
:10370000FCF7F0FDC9906AA10020FCF7EBFDC99021
:1037100009E067A10020FCF7E5FDC990C99808B150
:10372000641C00E000E0F4E700BF17B1012F3AD1BC
:103730001DE0204604EBD0714910A4EB410189B192
:1037400000BFFFF782FC9C203C4B3DA247A10090AC
:1037500058A0FEF721F9FFF779FC00BF4FF0FF30CA
:10376000CA9003E0204604EBD0714C101BE003200C
:1037700094FBF0F100FB114088B100BFFFF765FC3E
:10378000A6202E4B2EA239A100904AA0FEF704F9E4
:10379000FFF75CFC00BF4FF0FF30CA9002E003204F
:1037A00094FBF0F400BF00BF00BF012F01D1012046
:1037B00000E0002083464FF4487101A8FCF72CFD7F
:1037C00045A2012101A801F08FFB4FF0000820E085
:1037D0005B4642462946504600F020FE8146B9F13C
:1037E000000F00D117E0BBF1000F03D0484601F0F5
:1037F0005FF802E0484600F0FDFF5B464A464FF4A2
:10380000487101A801F074F9484600F0D3FE08F1B0
:103810000108A045DCD300BF4FF4487101A801F0B6
:1038200027FA01AAD899CB9800F0E5FE00BF16B19F
:10383000304600F063F8CA9853E70000035A0008C6
:103840002E2E5C2E2E5C2E2E5C6D69696F5C64657D
:10385000766963655C6F7065726174696F6E5F65D0
:1038600078656375746F722E630000006F70657207
:103870006174696F6E5F6578656375746F7200005F
:103880005B455D2025733A20636F6D6D616E64202A
:10389000627566206D616C6C6F63206661696C6532
:1038A00064202825732C2025732C202564290000F2
:1038B000200000005B455D2025733A207061726135
:1038C0006D73206572726F72202825732C2025730A
:1038D0002C20256429000000726573756C7420002B
:1038E00000BF054A128802F04002002AF9D0C2B295
:1038F000014B1B1D1A8070470038014010B500288D
:1039000021D0114B0022001F196803E0814203D827
:103910000A4649680029F9D152B11368841A9C42B9
:1039200004D1006818441060104602E0506000E0C6
:10393000186039B102680B1A934203D10B681A441C
:1039400002604968416010BD4800002070B5ADF5C7
:103950004A7D05460E460024FFF73AFB4FF44871B6
:1039600002A8FCF759FC4FF4487102A8FCF754FC7C
:1039700000F07EFC474908600846006870B900BF47
:10398000FFF763FBBA20444B44A248A100904AA031
:10399000FEF702F8FFF75AFB00BF73E03D480068EE
:1039A00000F032FC0446002C0EDA00BFFFF74DFB9E
:1039B000C120394B39A23DA100904CA0FDF7ECFF8E
:1039C000FFF744FB00BF5DE03248006800F042FCB6
:1039D0000446002C0EDA00BFFFF737FBC9202E4B40
:1039E0002EA232A100904EA0FDF7D6FFFFF72EFBCE
:1039F00000BF47E0574A58A12648006800F07CF90C
:103A0000044604B13EE0564A56A12248006800F040
:103A100073F9044604B135E0564A57A11D480068C1
:103A200000F06AF9044604B12CE0574A57A119483E
:103A3000006800F061F9044604B123E0564A57A13A
:103A40001448006800F058F9044604B11AE0554AD9
:103A500055A11048006800F04FF9044604B111E088
:103A60004FF4487202A90B48006800F0DBF90446E5
:103A700004B107E00748006800F050FC00200DF595
:103A80004A7D70BD0348006800F048FC4FF0FF30ED
:103A9000F5E70000140000205C5900082E2E5C6D34
:103AA00061696E5C6D61696E2E6300006D69696F9E
:103AB0005F6D61696E0000005B455D2025733A20F3
:103AC000637265617465206D69696F20696E7374D6
:103AD000616E6365206661696C6564202825732CBE
:103AE0002025732C20256429000000005B455D2003
:103AF00025733A2063726561746520756172742064
:103B0000696E7374616E6365206661696C656420BB
:103B10002825732C2025732C202564290000000003
:103B20005B455D2025733A2063726561746520787A
:103B30006D6F64656D20696E7374616E6365206678
:103B400061696C6564202825732C2025732C202541
:103B500064290000A13200086E6F6E65000000004D
:103B6000053200086765745F70726F706572746902
:103B700065730000E93300087365745F70726F70DD
:103B80006572746965730000D532000875706461F0
:103B900074655F66770000005132000861637469E4
:103BA0006F6E0000593300084D49494F5F6E6574D0
:103BB0005F6368616E676500F0B50B30154D20F0EE
:103BC00007010024144A0FE003688B420BD38B4299
:103BD00005D95E1A43184768C3E9006700E04368E7
:103BE000136002C004E0021D10680028ECD12046DA
:103BF000002802D1286808B10020F0BD064A074815
:103C00001060074A121A22F00702C0E900240120BE
:103C10002860D7E74C000020480000204C05002019
:103C2000481500202DE9F84F04460E4691461D46E2
:103C30000020009000BFB2462069001D40F835907A
:103C400020690068401C216908609AF80000222859
:103C500008D1504601F0E1F82169091D01EBC501C9
:103C600048603DE0042220A15046FCF72BFB48B9F8
:103C7000012001F0ADF801462069001D00EBC500F0
:103C800041602DE005221AA15046FCF71BFB40B90C
:103C9000002001F09DF82169091D01EBC501486074
:103CA0001EE02E215046FCF7DAFA58B95046FCF7D0
:103CB00049FB074601F0A4F82169091D01EBC50184
:103CC00048600DE05046FFF7FAF90746FCF7E2FCC2
:103CD000834601F088F82169091D01EBC5014860A0
:103CE00000BF0098BDE8F88F747275650000000091
:103CF00066616C73650000002DE9F843064688464E
:103D0000174635461DB1B8F1000F00D01FB94FF06E
:103D1000FF30BDE8F8835020FFF74EFF044684B91A
:103D200000BFFFF792F98D20124B13A219A100904A
:103D30001BA0FDF731FEFFF789F900BF4FF0FF3000
:103D4000E7E73F22414604F10900FCF77CFAE7640B
:103D500005F10800FFF773F900BF28684460206090
:103D600065602C6000BF00BF05F10800FFF769F92E
:103D70000020CEE7C15900082E2E5C2E2E5C2E2E80
:103D80005C6D69696F5C6D69696F5F6170692E63F5
:103D9000000000006D69696F5F61706900000000DC
:103DA0005B455D2025733A206D69696F20636F6DF7
:103DB0006D616E64206D616C6C6F63206661696C0F
:103DC0006564202825732C2025732C202564290068
:103DD0002DE9F04104460E460027B84604B116B955
:103DE0000020BDE8F08104F10800FFF728F92568FC
:103DF0000AE02F46314607F10900FCF741FA10B9F5
:103E00004FF0010802E02D68A542F2D100BF04F195
:103E10000800FFF716F9B8F1010F01D13846E0E7C5
:103E20000020DEE72DE9F04F95B004460E4692469D
:103E3000002014901CB116B1BAF1000F03DC6FF032
:103E400009001490DCE027463C4607F15005A046E7
:103E50000120444688F84900402003904FF00009B3
:103E600000BF4FF0000968A128462A6B904710F167
:103E7000050F02D14FF0FF3000E0002040EA0909B1
:103E800064A128462A6B904710F1050F02D14FF02C
:103E9000FF3000E0002040EA090965A128462A6BAE
:103EA000904710F1050F02D14FF0FF3000E00020E5
:103EB00040EA09096348FFF77FF9B9F1000FD0D153
:103EC00098E06048FFF778F92146012001F0E4F816
:103ED00051463046FCF7A0F9402104A8FCF79CF9B4
:103EE00059A12846EA699047C823524631462846D8
:103EF000D5F824C0E0478146B9F1000F0ADC00BFC5
:103F0000FFF7A3F853A156A0FDF746FDFFF79EF873
:103F100000BF6FE0A9F10100305C0D280ED000BF9A
:103F2000FFF793F832464BA15AA0FDF735FDFFF796
:103F30008DF800BF6FF0090014905BE003AB04AA9A
:103F40004946304600F0EEFF1490149870B100BF5F
:103F5000FFF77BF832463FA155A0FDF71DFDFFF7A7
:103F600075F800BF6FF00900149043E00398002833
:103F700031D004A800282ED004A93846FFF728FF26
:103F80008346BBF1000F0FD104A951A0FCF778F9CB
:103F900000B304A950A0FCF773F9D8B14F4A50A15F
:103FA000384600F04FFF15E000BFFFF74EF804AAB7
:103FB00028A150A0FDF7F0FCFFF748F800BF4A46E3
:103FC000314601A801F00EF8514A01A92046DBF85C
:103FD0004C3098470EE06FF00900149000BFFFF7D7
:103FE00034F832461BA14BA0FDF7D6FCFFF72EF8A4
:103FF00000BF00BF98F8490001283FF462AF00BF3E
:10400000149815B0BDE8F08F6563686F206F666621
:104010000D0000006D6F64656C206162696C6979E8
:104020002E72656D6F74652E667A753030340D00B2
:104030006D63755F76657273696F6E2030303031F5
:104040000D000000400D03006765745F646F776EBC
:104050000D0000006D69696F5F617069000000000C
:104060005B495D2025733A207561727420636F6E21
:104070006E6563746564206572726F72206F722062
:104080006D6F64756C65207265626F6F74696E67C1
:104090002E2E2E005B495D2025733A2075617274C7
:1040A0002072656376206572726F725B25735D00A6
:1040B0005B495D2025733A20676574206D657468DF
:1040C0006F64206661696C65645B25735D00000048
:1040D0006572726F720000006F6B0000F1D8FFFF15
:1040E000756E646566696E656420636F6D6D616E83
:1040F000640000005B495D2025733A20666F756E91
:1041000064206D6574686F64203A20257300000098
:10411000951B00085B495D2025733A20756E6B6E18
:104120006F776E20636F6D6D616E64203A2025732A
:10413000000000002DE9F047054689464FF0000ACF
:104140004FF44B70FFF738FD044614B90020BDE86A
:10415000F0874FF44B712046FCF75EF800BF2E4607
:10416000307822280ED1022020703046FCF781F8EA
:10417000C4F82803D4F82803821E711C201DFCF704
:1041800062F834E004221CA13046FCF79BF818B911
:104190000120207020712AE0052219A13046FCF789
:1041A00091F820B901202070002020711FE02E21FD
:1041B0003046FCF754F878B90320207000202071B5
:1041C0003046FCF7BFF8A0603046FEF778FF0746A0
:1041D000FCF760FAE0600AE0032020700120207103
:1041E0003046FEF76CFF0746FCF754FAE06000BF6C
:1041F000C9F80C405046AAE77472756500000000CB
:1042000066616C73650000007FB504460025264694
:1042100009480A490A4A0B4BCDE90032CDE90210A0
:10422000094B0A4A0A4906F1500000F015FA054602
:10423000284604B070BD000025250008A52600080A
:104240005B19000849250008512800086D2700085F
:104250003D24000870B504460026254605F15001AE
:1042600005F1840000F020FA0646304670BD0000DB
:1042700038B540F28C40FFF79FFC04467CB900BF84
:10428000FEF7E3FE58200D4B0DA214A1009016A0DE
:10429000FDF782FBFEF7DAFE00BF002038BD40F2DA
:1042A0008C412046FBF7B8FF04F10800FEF7C8FE7A
:1042B00000BF2460646000BF2046EFE7AC590008EF
:1042C0002E2E5C2E2E5C2E2E5C6D69696F5C6D69E6
:1042D000696F5F6170692E63000000006D69696F2E
:1042E0005F617069000000005B455D2025733A2026
:1042F0006D69696F20696E7374616E6365206D61AD
:104300006C6C6F63206661696C6564202825732C72
:104310002025732C20256429000000002DE9F0439E
:1043200089B0064666B900BFFEF78FFE25A128A01A
:10433000FDF732FBFEF78AFE00BF09B0BDE8F0834F
:10434000354605F10800FEF77AFE00BF05F150087A
:10435000242208F110016846FBF745FF98E80F009A
:1043600000F058F92C68276811E0A14600BFD4E995
:1043700000104860016000BF00202060606000BF46
:104380004846FFF7BBFA4FF000093C462768AC42AD
:10439000EBD100BF05F10800FEF753FE05F1080060
:1043A000FEF74CFE00BFFEF750FE06A113A0FDF77E
:1043B000F3FAFEF74BFE00BF2846FFF79FFA00BF57
:1043C000BBE700006D69696F5F6170690000000004
:1043D0005B495D2025733A20637265617465206DC9
:1043E00069696F2068616E646C6520696E737461C1
:1043F0006E63652066697273740000005B495D201E
:1044000025733A206D69696F20696E7374616E63FC
:10441000652064657374726F796564002DE9F84FE7
:1044200081460E4692461F464FF0000B00F0CDF835
:1044300005463046FFF7C0FB8046B8F1000F02D1B9
:104440000020BDE8F88F31464046FBF7E5FE721EBE
:1044500049464046FBF7C7FE0020009038A1404681
:10446000FBF740FF009036A10020FBF73BFF0090D8
:1044700054469FB10FE032A10020FBF733FF0090BC
:104480002FA10020FBF72EFF00902DA10020FBF7AD
:1044900029FF0090641E002CEDD10DE00AE028A158
:1044A0000020FBF71FFF009025A10020FBF71AFF5B
:1044B0000090641E002CF2D100BF21A10020FBF768
:1044C00011FF00900098FBF73DFF28601CA1002021
:1044D000FBF708FF00900098FBF734FF686007B90E
:1044E0000EE017A10020FBF7FDFE00902946009882
:1044F000FFF720FE8346BBF1000F00D000E000BFB5
:1045000000BFBBF1000F13D000BF0E4800680328A6
:1045100009DCFEF79AFD7A230B4A0CA119A0FDF7DE
:104520003BFAFEF793FD00BF284600F043F8002554
:10453000B8F1000F02D04046FFF7E0F9284680E7C7
:104540002000000038000020815A00082E2E5C2E2A
:104550002E5C2E2E5C6D69696F5C6465766963659F
:104560005C636F6465635C70726F70657274795FB1
:104570006F7065726174696F6E5F6465636F6465A7
:10458000722E63005B455D20726561647920746FF3
:104590002064656C6574652070726F7065727479E3
:1045A0002076616C7565202825732C2025732C20BE
:1045B0002564290010B50446E06810B1E06800F0F9
:1045C000DFFB2046FFF79AF910BD10B5002400BFAD
:1045D0001020FFF7F1FA044604B909E0002020603A
:1045E0006060A060E060A06020606060E06000BF8C
:1045F00000BF204610BD2DE9F04106460D46144689
:104600002046FBF736FE07463A4621463046A84785
:10461000BDE8F08110B500BFFEF717FD04A107A0AB
:10462000FDF7BAF9FEF712FD00BF002010BD000033
:104630006D69696F5F756172740000005B495D2090
:1046400025733A206D69696F207561727420646505
:104650007374726F796564002DE9F05F04460D464E
:1046600016461F46DDE90CABDDE90A89A561E66166
:10467000C4F824802763C4F82CB0C4F82890C4F888
:1046800020A004F11000FEF7DBFC04F11100FEF79E
:10469000D7FC2046A169884718B14FF0FF30BDE82C
:1046A000F09F0020FBE70000F8B505460C46002609
:1046B0000CB1002D13D100BF00BFFEF7C6FC40F2C5
:1046C0000910094B09A212A1009013A0FDF764F98B
:1046D000FEF7BCFC00BF00BF6FF00900F8BD1B482F
:1046E00004603046FAE70000615900082E2E5C2E67
:1046F0002E5C2E2E5C757365725C6F74615C786DD8
:104700006F64656D5C786D6F64656D2E630000008D
:10471000786D6F64656D00005B455D2025733A2000
:1047200075617274206F7220786D6F64656D207092
:104730006F696E746572206973204E554C4C202849
:1047400025732C2025732C20256429003C00002093
:1047500010B5044600BF17480068012806DCFEF7C4
:1047600074FC15A0FDF718F9FEF770FC00BF00BF40
:1047700010480068012807DCFEF767FC14A02168D8
:10478000FDF70AF9FEF762FC00BF00BF09480068A8
:10479000012807DCFEF759FC11A06168FDF7FCF861
:1047A000FEF754FC00BF00BF1148E06000BF00BF2F
:1047B00010BD0000380000205B495D206F6E5F6116
:1047C0006374696F6E5F696E766F6B650A000000D7
:1047D0005B495D20736969643A2025640A00000022
:1047E0005B495D20616969643A2025640A00000024
:1047F0005DF0FFFF10B5044600BF1D4800680128AA
:1048000006DCFEF722FC1BA0FDF7C6F8FEF71EFC37
:1048100000BF00BF16480068012807DCFEF715FC42
:104820001AA02168FDF7B8F8FEF710FC00BF00BF22
:104830000F480068012807DCFEF707FC17A0616835
:10484000FDF7AAF8FEF702FC00BF2068012802D09D
:10485000022808D103E02046FCF77FFD06E0204651
:10486000FCF79FFD02E01148A06000BF00BF10BD33
:10487000380000205B495D206F6E5F70726F70655D
:104880007274795F6765740A000000005B495D20FF
:10489000736969643A2025640A0000005B495D2061
:1048A000706969643A2025640A0000005DF0FFFF2A
:1048B00010B5044600BF18480068012808DCFEF760
:1048C000C4FB16A0D4E90012FDF766F8FEF7BEFBA4
:1048D00000BFE06880B900BF0F480068032809DC0A
:1048E000FEF7B3FB1723194A19A123A0FDF754F8CB
:1048F000FEF7ACFB00BF10BDE06800F04DF820688B
:10490000022803D12046FCF75BFD02E00020A060F6
:1049100000BF00BF00BFEEE7380000205B495D200C
:104920006F6E5F70726F70657274795F7365743AE1
:10493000202073696964203D205B25645D2C207014
:10494000696964203D205B25645D0A008E5900087A
:104950002E2E5C2E2E5C2E2E5C757365725C68614B
:104960006E646C65725C6F6E5F70726F706572748E
:10497000795F7365742E63005B455D2076616C75AD
:1049800065206973204E554C4C0A202825732C2035
:1049900025732C202564290070B504462078012851
:1049A00013D0022802D0032847D122E000BF2B48B1
:1049B0000068012807DCFEF748FB211D28A0FCF752
:1049C000EBFFFEF743FB00BF46E000BF2348006853
:1049D00001280CDCFEF739FB207908B126A000E0A5
:1049E00027A0014628A0FCF7D7FFFEF72FFB00BF4A
:1049F00032E0207968B900BF18480068012807DC58
:104A0000FEF723FB27A0A168FCF7C6FFFEF71EFBFD
:104A100012E000BF1148006801280CDCFEF715FB0E
:104A2000E068FBF724FE05462A460B4624A0FCF767
:104A3000B3FFFEF70BFB00BF0EE000BF07480068A6
:104A4000012807DCFEF701FB217823A0FCF7A4FF77
:104A5000FEF7FCFA00BF00BF00BF70BD38000020A9
:104A60005B495D2076616C75652028737472696E90
:104A700067293A2025730A007472756500000000EA
:104A800066616C73650000005B495D2076616C7542
:104A9000652028626F6F6C65616E293A2025730A64
:104AA000000000005B495D2076616C756520286917
:104AB0006E7465676572293A20256C640A000000EF
:104AC0005B495D2076616C75652028666C6F61744A
:104AD000293A2025660A00005B495D20696E7661EF
:104AE0006C69642076616C75653A2025640A000063
:104AF0002DE9F04792B005460E46144699464FF010
:104B0000000A0DB106B12CB96FF0090A504612B077
:104B1000BDE8F08700200E900F90109011900A9041
:104B20000B900C900D90069007900890099048A269
:104B300010210EA82368FCF73FFF45A210210AA808
:104B40006368FCF739FF42A2102106A8A368FCF7AE
:104B500033FF40A006A93FA20AABCDE90032CDE960
:104B600002103CA30EAA0621284600F0BDF9A06859
:104B700030B138A20121284600F0B6F90020C6E77E
:104B8000B9F1000F62D1E0680078002857D0012801
:104B900004D0022811D0032852D118E0E06800792F
:104BA00028B905222CA12846FBF778FB04E0042253
:104BB0002BA12846FBF772FB42E02BA00090E06897
:104BC000031D29A20321284600F08EF938E0E06891
:104BD0000079A8B900200290039004900590E06845
:104BE0001BA21021836802A8FCF7E6FE02A8FBF7CF
:104BF00040FB07463A4602A92846FBF74FFB00BF99
:104C0000E0680079012819D10020029003900490F7
:104C10000590E168C868FBF72AFD14A2CDE9000100
:104C2000102102A8FCF7C8FE02A8FBF722FB0746EA
:104C30003A4602A92846FBF731FB00BF00E000BF5F
:104C400000BF04A20121284600F04EF950465EE75D
:104C5000256400002000000066616C7365000000A0
:104C600074727565000000002200000025660000D7
:104C700038B504460D46002C0FD100BFFEF7E5F90C
:104C80005620144B14A222A1009028A0FCF784FE09
:104C9000FEF7DCF900BF201F38BD2046FBF7E9FA1C
:104CA000A84210D300BFFEF7D0F95A20094B0AA240
:104CB00017A1009026A0FCF76FFEFEF7C7F900BF12
:104CC0006FF00A00E8E72DA12046FBF7B0FA0020BC
:104CD000E2E70000A05A00082E2E5C2E2E5C2E2E3D
:104CE0005C6D69696F5C6465766963655C636F645C
:104CF00065635C70726F70657274795F6F706572F6
:104D00006174696F6E5F656E636F6465722E6300B8
:104D100070726F70657274795F6F706572617469BB
:104D20006F6E5F656E636F64657200005B455D204A
:104D300025733A2070627566206973204E554C4C7D
:104D4000202825732C2025732C20256429000000A1
:104D50005B455D2025733A20706172616D73206F31
:104D60007574206F662072616E6765202825732C2C
:104D70002025732C20256429000000000D00000070
:104D800010B504462078012804D0022803D0032857
:104D900003D101E002E001E000E000BF00BF2046D7
:104DA000FEF7ACFD10BD10B5002400BF4FF44B70F2
:104DB000FEF702FF044604B907E04FF44B712046AA
:104DC000FBF72AFA0020207000BF00BF204610BD6C
:104DD00070B50546FFF7E7FF044614B101202070C7
:104DE0002571204670BD70B50546FFF7DCFF04460F
:104DF00024B10320207001202071E560204670BDA1
:104E000070B50546FFF7CFFF044624B1032020709C
:104E100000202071A560204670BD70B50546FFF7E3
:104E2000C2FF044664B1022020704FF44872294644
:104E3000201DFBF708FA201DFBF71BFAC4F8280316
:104E4000204670BD70B5ADF54A7D06460C46154648
:104E50004FF4487102A8FBF7DFF94FF4487102A83C
:104E6000FBF7DAF9234608A24FF4487102A800952F
:104E7000FCF7A2FD064A02A93046FEF79BFA002085
:104E80000DF54A7D70BD00002225732220256400A7
:104E9000951B00082DE9F041ADF5487D06460C460E
:104EA00090461D46002700BF4FF448716846FBF747
:104EB000B3F923460AA20221684600F015F84FF420
:104EC00048716846FDF78EFF6A4629463046FFF76F
:104ED00092FB00BF38460DF5487DBDE8F08100002B
:104EE0006572726F722000000FB4F8B5054608A80D
:104EF000009000240BE0009810C800902046FBF7BB
:104F0000B8F90646324621462846FBF7C7F9079905
:104F1000481E07900029EED100200090F8BC5DF8F3
:104F200014FB00002DE9F04707460E4691469846CF
:104F30003046FEF741FE044604B107B93FE0324671
:104F400039462046FBF77FF92021701E21540025A9
:104F500021A12046FBF7C6F9054605B92FE02846F2
:104F6000FBF787F9052801D9052002E02846FBF761
:104F700080F98246524619A12846FBF7A3F900B9E9
:104F80001DE005B91BE014A10020FBF7ABF90546B5
:104F900005B914E02846FBF76CF9824652462946CB
:104FA0004846FBF750F94846FBF763F9C8F800009C
:104FB00014B12046FEF7A2FC0020BDE8F0874FF0B8
:104FC00000090020C8F8000014B12046FEF796FC46
:104FD0006FF00900F1E70000200000006572726FB9
:104FE00072000000034603B111B96FF00900704769
:104FF00059601A600020FAE710B586B00446012116
:1050000044F20400FCF798F84FF40070ADF8140077
:1050100003208DF8160018208DF8170005A91C48EC
:10502000FBF720FF4FF48060ADF8140004208DF8EA
:10503000170005A91648FBF715FF25208DF800007D
:1050400003208DF801008DF8020001208DF8030087
:105050006846FBF7B3FF01940020ADF80800ADF8F7
:105060000A00ADF80C00ADF810000C20ADF80E00F1
:1050700001A90848FCF7FAFB012240F22551054836
:10508000FCF7CEFB01210348FCF787FB06B010BDFF
:10509000000801400038014070B505460C46134831
:1050A000006840B9FEF740F841F61F41C720FCF701
:1050B000EDF9FBF76DFF20210D48FBF75EFF50B9BE
:1050C0000A20FEF753F820210948FBF756FF10B9D4
:1050D0002046FDF73FFF4FF47A70FEF747F803488C
:1050E0000068401C01490860002070BD400000209D
:1050F000000C01400246822101E0481EC1B2032992
:1051000002DB505CFF28F8D0022901D0822901D1AE
:1051100080207047505C1A2801D1C81EF9E7802012
:10512000F7E770B502460B460AB9002070BD511C66
:1051300000240025107810B101280AD104E091F86C
:10514000834091F8845005E091F8034491F80454A9
:1051500000E000BF00BF4FF47F4000EA0420EEB241
:105160003043984201D10120E0E70020DEE730B56E
:1051700002460B460AB9002030BD541C0021002510
:10518000107810B1012804D100E000BF6178A57843
:1051900000E000BF00BF8B4202D0481C834205D113
:1051A0004819C0B2FF2801D10120E5E70020E3E75C
:1051B000F8B505460E4605B9F8BD6C1C287810B147
:1051C000012822D110E000BFFDF73FFF94F88400D2
:1051D000009094F8833032460EA110A0FCF7DCFB5F
:1051E000FDF734FF00BF11E000BFFDF72EFF94F87C
:1051F0000404009094F80334324606A107A0FCF79B
:10520000CBFBFDF723FF00BF00E000BF00BF00BFE6
:10521000D2E70000786D6F64656D00005B495D202A
:1052200025733A20637263206572726F72203A2090
:1052300025785B636E745D2C20257825785B72651C
:1052400063765D0070B505466C1CE41C08A0FCF795
:10525000A3FB002605E014F8011B09A0FCF79CFB4A
:10526000761C802EF7DB07A0FCF796FB70BD0000D4
:10527000786D6F64656D2064617461203A20000070
:10528000257820000D0A000070B505466C1C2878B2
:1052900010B1012860D12FE000BFFDF7D6FE30A18C
:1052A0003148FCF779FBFDF7D1FE00BF00BFFDF7E9
:1052B000CCFE22782AA12DA0FCF76EFBFDF7C6FEDE
:1052C00000BF00BFFDF7C1FEA378627824A12CA027
:1052D000FCF762FBFDF7BAFE00BF00BFFDF7B5FEAD
:1052E00094F8843094F883201DA12CA0FCF754FB83
:1052F000FDF7ACFE00BF30E000BFFDF7A6FE18A131
:105300002B48FCF749FBFDF7A1FE00BF00BFFDF7EE
:105310009CFE227812A115A0FCF73EFBFDF796FE3D
:1053200000BF00BFFDF791FEA37862780CA114A026
:10533000FCF732FBFDF78AFE00BF00BFFDF785FEDC
:1053400094F8043494F8032405A114A0FCF724FB7A
:10535000FDF77CFE00BF00E000BF00BF70BD000095
:10536000786D6F64656D0000DC5C00085B495D2052
:1053700025733A200968656164203A202578000089
:105380005B495D2025733A20096E756D287E6E7528
:105390006D29203A20257828257829005B495D2051
:1053A00025733A2009637263203A20257825780016
:1053B000985C000870B504460D4604B970BD661CC3
:1053C000207810B101280ED100E000BF00BFFDF72A
:1053D0003CFE73782A4606A107A0FCF7DDFAFDF72C
:1053E00035FE00BF00E000BF00BF00BFE6E70000E1
:1053F000786D6F64656D00005B495D2025733A2010
:105400007061636B6E6F206572726F72203A202537
:10541000755B636E745D2C2025755B726563765DCC
:10542000000000002DE9F04F89B004460026B14687
:105430000020089000250790002780468620FEF770
:10544000BBFB0790079878B900BF00BFFDF7FDFDD3
:10545000D0A1D2A0FCF7A0FAFDF7F8FD00BF00BF75
:10546000681E09B0BDE8F08F0FF2583AD6480068C0
:105470005146C269D4480068904700200690012038
:1054800005900020049083E1D048FDF795FE64214B
:10549000601C00F049FA0690681CC5B2701C0646F4
:1054A000142821DD069800281EDC00BF00BFFDF790
:1054B000CCFD4FF49E70C649C6A33246CDE900101C
:1054C000B4A1CDA0FCF768FAFDF7C0FD00BF00BF96
:1054D000182000F037FA182000F034FA182000F0F5
:1054E00031FA4FF0FF30BCE7761E2046FFF7CCFEC6
:1054F000607803909DF80C00012806D0022808D09F
:1055000004280AD0182855D131E000202070002648
:105510009AE001202070002696E00026062000F088
:1055200011FA0798FFF7E6FD8046474400BF00BF29
:10553000FDF78BFD3B46424696A1BDA0FCF72CFA39
:10554000FDF784FD00BF00BF3A4641460798FDF7CE
:1055500079FD00BF00BFFDF778FD8EA1BDA0FCF76F
:105560001BFAFDF773FD00BF00BF002079E700269E
:105570000DF10C0A4FF0640B934800685A465146EF
:10558000C36A9148006898479DF80C00182810D10C
:1055900000BF00BFFDF759FD7EA1B3A0FCF7FCF9E9
:1055A000FDF754FD00BF00BF062000F0CBF900203E
:1055B00057E747E0701C064614282ADD00BF00BFED
:1055C000FDF743FD73A1AEA0FCF7E6F9FDF73EFD44
:1055D00000BF00BF00BF00BFFDF737FD40F27F10E6
:1055E0007B497CA33246CDE900106AA182A0FCF77A
:1055F000D3F9FDF72BFD00BF00BF182000F0A2F982
:10560000182000F09FF9182000F09CF94FF0FF30AF
:1056100027E700BF00BFFDF718FD40F287106C4977
:105620006CA33246CDE900105AA19DA0FCF7B4F955
:10563000FDF70CFD00BF00BF681EC5B2152000F0CD
:1056400081F9A5E000BF00BF29462046FFF78FFD86
:10565000002832D109F10109B9F10A0F23DB182022
:1056600000F070F9182000F06DF9182000F06AF9C8
:1056700000BF00BFFDF7E9FC46A197A0FCF78CF93D
:10568000FDF7E4FC00BF00BF00BF00BFFDF7DDFC7D
:1056900040A199A0FCF780F9FDF7D8FC00BF00BF3E
:1056A0004FF0FF30DDE629462046FFF783FE681EF7
:1056B000C5B2152000F046F96AE04FF000098021DC
:1056C000201DFDF711FD029020460299FFF729FDEC
:1056D000002833D10898401C089008980A2823DD38
:1056E000182000F02FF9182000F02CF9182000F0F5
:1056F00029F900BF00BFFDF7A8FC26A183A0FCF795
:105700004BF9FDF7A3FC00BF00BF00BF00BFFDF7D2
:105710009CFC20A178A0FCF73FF9FDF797FC00BFA7
:1057200000BF4FF0FF309CE620460299FFF740FD96
:10573000681EC5B2152000F005F929E00020089088
:105740002046FFF77FFD0598012802D10020059033
:1057500015E04FF08008474400BF00BFFDF775FC1F
:105760003B4642460BA132A0FCF716F9FDF76EFC52
:1057700000BF00BF3A4641460798FDF763FC85220B
:10578000611C0798FAF72FFD062000F0DBF800BF38
:105790007AE60000786D6F64656D00005B495D20FE
:1057A00025733A206F7461206661696C6564206DB1
:1057B000616C6C6F632062756666657220657272DB
:1057C0006F720A00430000003C000020A086010028
:1057D0007D5900082E2E5C2E2E5C2E2E5C75736576
:1057E000725C6F74615C786D6F64656D5C786D6F11
:1057F00064656D2E630000005B455D2025733A20D3
:10580000786D6F64656D207472616E736D6974205C
:105810006661696C65642C207265747279202564F8
:105820000A202825732C2025732C202564290000AC
:105830005B495D2025733A20786D6F64656D207239
:105840006563762025755B6375725D2025755B73D6
:10585000756D5D005B495D2025733A206F74612092
:1058600073756363657373005B495D2025733A202C
:105870006F74612063616E63656C65640000000095
:105880005B495D2025733A20786D6F64656D2074E7
:1058900072616E736D6974206661696C6564000085
:1058A0005B455D2025733A20786D6F64656D2074CB
:1058B00072616E736D6974206572726F722C2072E2
:1058C000657472792025640A202825732C2025739D
:1058D0002C202564290000005B495D2025733A20B7
:1058E0007061636B206572726F7220726574727979
:1058F000206D6178000000005B495D2025733A202F
:105900006F7461206661696C656400005B495D20AD
:1059100025733A20637263206572726F722072651C
:10592000747279206D61780070B504460D460448A4
:1059300000682A462146836A01480068984770BD7E
:105940003C00002010B50446034800682146026A66
:1059500001480068904710BD3C0000206D61696EF1
:10596000006D69696F5F786D6F64656D5F63726507
:105970006174655F696E7374616E636500786D6FE5
:1059800064656D5F726563765F64617461006F6EFC
:105990005F70726F70657274795F736574005F6DAC
:1059A00069696F5F636D645F61636B006D69696FE7
:1059B0005F696E7374616E63655F63726561746560
:1059C000006D69696F5F636D645F6D6574686F64B6
:1059D0005F7265676973746572006D69696F5F6591
:1059E00076656E745F73656E640065786563757463
:1059F000655F70726F70657274795F6368616E67FE
:105A0000656400657865637574655F70726F706555
:105A10007274795F6F7065726174696F6E0065781A
:105A200065637574655F616374696F6E5F696E76D7
:105A30006F636174696F6E0073656E645F65766530
:105A40006E745F6F6363757272656400616374691D
:105A50006F6E5F6F7065726174696F6E5F646563AE
:105A60006F646500616374696F6E5F6F706572610A
:105A700074696F6E5F656E636F64655F7461696C96
:105A8000006D69696F5F70726F70657274795F6FB6
:105A90007065726174696F6E5F6465636F646500E1
:105AA00070726F70657274795F6F7065726174691E
:105AB0006F6E5F656E636F64655F7461696C000033
:105AC00040404040404040404041414141414040D1
:105AD00040404040404040404040404040404040C6
